:100000000C945D000C9485000C9485000C94850084
:100010000C9485000C9485000C9485000C9485004C
:100020000C9485000C9485000C9485000C941608A3
:100030000C9485000C9485000C9485000C9485002C
:100040000C9459060C9485000C94C9060C94A306D4
:100050000C9485000C9485000C9485000C9485000C
:100060000C94FB060C94850000000000240027007F
:100070002A0000000000250028002B0004040404CE
:100080000404040402020202020203030303030342
:10009000010204081020408001020408102001021F
:1000A00004081020000000080002010000030407FB
:1000B0000000000000000000D20811241FBECFEF96
:1000C000D8E0DEBFCDBF11E0A0E0B1E0E8ECFCE19C
:1000D00002C005900D92A036B107D9F722E0A0E644
:1000E000B1E001C01D92AC3DB207E1F710E0CDE5F3
:1000F000D0E004C02197FE010E945C0ECC35D107F0
:10010000C9F70E9456090C94620E0C940000E0910D
:10011000CD02EC3088F54091CE0228E830E0241B77
:10012000310947FD3395220F331F220F331F8217EA
:10013000930784F04091CF0228E532E0241B310977
:1001400047FD3395220F331F220F331F821793076A
:100150000CF49C0122503109220F331F4FB7F89441
:100160008E2F90E0FC01EE0FFF1FE80FF91FE855FE
:10017000FD4F328321834FBF089590E0FC01EC5581
:10018000FF4F2491FC01E057FF4F3491FC01E458EC
:10019000FF4FE491EE23C9F0222339F0233001F11F
:1001A000A8F4213019F1223029F1F0E0EE0FFF1F01
:1001B000EE58FF4FA591B4918FB7F894EC9161116F
:1001C00026C030953E233C938FBF08952730A9F079
:1001D0002830C9F0243049F7809180008F7D03C01A
:1001E000809180008F7780938000DFCF84B58F77F8
:1001F00084BDDBCF84B58F7DFBCF8091B0008F773E
:100200008093B000D2CF8091B0008F7DF9CF3E2B8C
:10021000DACF8E50806480937C0080917A00806475
:1002200080937A0080917A0086FDFCCF80917800DF
:100230009091790008953FB7F8948091FB019091D7
:10024000FC01A091FD01B091FE0126B5A89B05C05F
:100250002F3F19F00196A11DB11D3FBFBA2FA92F45
:10026000982F8827BC01CD01620F711D811D911D42
:1002700042E0660F771F881F991F4A95D1F70895AE
:100280008F929F92AF92BF92CF92DF92EF92FF92A6
:100290004B015C010E941B016B017C010E941B0150
:1002A0006C197D098E099F09683E7340810591058F
:1002B000A8F321E0821A9108A108B10888EEC80EBF
:1002C00083E0D81EE11CF11C81149104A104B10447
:1002D00029F7FF90EF90DF90CF90BF90AF909F9065
:1002E0008F900895DC01ED91FC910190F081E02D5B
:1002F0000994AF92BF92CF92DF92EF92FF920F9349
:100300001F93CF93DF936C017B018B01040F151FAB
:10031000EB015E01AE18BF08C017D10759F0699113
:10032000D601ED91FC910190F081E02DC601099577
:10033000892B79F7C501DF91CF911F910F91FF9024
:10034000EF90DF90CF90BF90AF900895FC01538D58
:10035000448D252F30E0842F90E0821B930B54179F
:1003600010F0CF96089501970895FC01918D828D2C
:10037000981761F0A28DAE0FBF2FB11D5D968C91C5
:10038000928D9F5F9F73928F90E008958FEF9FEF04
:100390000895FC01918D828D981731F0828DE80FC0
:1003A000F11D858D90E008958FEF9FEF0895FC017A
:1003B000918D228D892F90E0805C9F4F821B910947
:1003C0008F73992708958FEF91E00E94D70121E064
:1003D000892B09F420E0822F089580E090E0892B9A
:1003E00029F00E94E30181110C9400000895FC01A2
:1003F000A48DA80FB92FB11DA35ABF4F2C91848D86
:1004000090E001968F739927848FA689B7892C93E2
:10041000A089B1898C91837080648C93938D848D35
:10042000981306C00288F389E02D80818F7D808338
:100430000895EF92FF920F931F93CF93DF93EC01F8
:1004400081E0888F9B8D8C8D98131AC0E889F9897B
:10045000808185FF15C09FB7F894EE89FF8960837E
:10046000E889F98980818370806480839FBF81E0FF
:1004700090E0DF91CF911F910F91FF90EF90089541
:10048000F62E0B8D10E00F5F1F4F0F731127E02E1C
:100490008C8D8E110CC00FB607FCFACFE889F98954
:1004A000808185FFF5CFCE010E94F701F1CFEB8D62
:1004B000EC0FFD2FF11DE35AFF4FF0829FB7F89428
:1004C0000B8FEA89FB8980818062CFCFCF93DF9346
:1004D000EC01888D8823B9F0AA89BB89E889F9895C
:1004E0008C9185FD03C0808186FD0DC00FB607FC91
:1004F000F7CF8C9185FFF2CF808185FFEDCFCE01C4
:100500000E94F701E9CFDF91CF91089508951F93DD
:10051000CF93DF93C1E0C0936201882399F1D0911A
:10052000B8001091BA008091BC008A7B8093BC0017
:1005300060E082E10E94BD0060E083E10E94BD00B6
:100540001092CC01C093CB011092A60161E082E130
:100550000E94BD0061E083E10E94BD008091B9006E
:100560008E7F8093B9008091B9008D7F8093B90010
:1005700088E48093B80085E48093BC001093BA00AF
:10058000D093B800DF91CF911F91089520918301FE
:10059000260F3327331F21323105ECF42091CC0193
:1005A000FC0190E080E0243069F082E00895A091A1
:1005B00083012191AC014D595E4FA40FB52FB11DA0
:1005C0002C930196861798F380918301680F6093AE
:1005D000830180E0089581E0089508958FEF9FEFF3
:1005E00008958FEF9FEF08958091610190E09195BC
:1005F000819591090895CF92DF92EF92FF920F9328
:100600001F93CF93DF937C01CB018A012091D2010C
:10061000222389F0EB016B01C40ED51ECC15DD053C
:1006200069F06991D701ED91FC910190F081E02D85
:10063000C7010995F3CF642F0E94C602C801DF915C
:10064000CF911F910F91FF90EF90DF90CF90089581
:10065000CF93DF931F92CDB7DEB769832091D2018C
:100660002223F9F02091F501203258F021E030E00A
:10067000FC013383228390E080E00F90DF91CF91E3
:1006800008958091D301E82FF0E0EC52FE4F99815C
:1006900090838F5F8093D3018093F50181E090E098
:1006A000ECCF61E0CE0101960E94C602F7CFCF9257
:1006B000DF92EF92FF920F931F93CF93DF93FC0192
:1006C000C48121E02093D201C093F4011092D301A0
:1006D0001092F5018385682B8CE992E00E94280333
:1006E000D091F501D13208F092C00E941B016B013C
:1006F0007C018091CC01811165C082E08093CC01A6
:1007000081E08093CB018FEF8093CA011092C901E1
:10071000D093C801A4EDB1E0E8EAF1E080E0D8139D
:1007200085C01092A7018091A701CC0FC82BC09360
:10073000A7018091A601813009F07CC01092A6012A
:100740000E941B016B017C018091A7018093BB007B
:100750008091CE019091CF01A091D001B091D101B3
:10076000892B8A2B8B2B99F00E941B010091CE01C3
:100770001091CF012091D0013091D1016C197D09E8
:100780008E099F090617170728073907E0F180919E
:10079000BC0083FDD9CF85EC8093BC000E941B0177
:1007A0006B017C018091CC01823009F445C08091BD
:1007B000CA018F3F61F18091CA01803241F180917D
:1007C000CA0125C08091CE019091CF01A091D001A6
:1007D000B091D101892B8A2B8B2B09F48ACF0E94EF
:1007E0001B010091CE011091CF012091D0013091D9
:1007F000D1016C197D098E099F0906171707280773
:10080000390708F076CF8091CD010E9487021092BF
:10081000D3011092F5011092D201DF91CF911F9177
:100820000F91FF90EF90DF90CF9008959D9191935D
:100830008F5F75CF85EEB0CF8091CE019091CF01C3
:10084000A091D001B091D101892B8A2B8B2B09F477
:10085000A9CF0E941B010091CE011091CF012091E0
:10086000D0013091D1016C197D098E099F090617BD
:1008700017072807390708F095CFC5CF90E080E02B
:1008800008950F931F93CF938C01C62F0E94570397
:100890006C2F6460C8010E9457036C2F6B7FC801E6
:1008A0000E94570383EC90E00197F1F7CF911F91DD
:1008B0000F9108950F931F93CF93DF938C01D62F41
:1008C000C42F607F642B0E94410480E1D89FB00157
:1008D00011246C2BC801DF91CF911F910F910C94C3
:1008E0004104CF93DF93CDB7DEB728970FB6F894C6
:1008F000DEBF0FBECDBF98E0E0E0F1E0DE01119673
:1009000001900D929A95E1F79091D802961708F40C
:100910006FEF262F30E0220F331F41E050E04C0FE5
:100920005D1F240F351FF9016081680F606840E08A
:1009300080ED92E028960FB6F894DEBF0FBECDBFD3
:10094000DF91CF910C945A0441E00E945A0481E057
:1009500090E00895FB0101900020E9F73197AF0185
:10096000461B570BDC01ED91FC910280F381E02DD9
:1009700009948F929F92AF92BF92EF92FF920F9342
:100980001F93CF93DF93CDB7DEB7A1970FB6F8943F
:10099000DEBF0FBECDBF7C01FA01CB0119A2223010
:1009A00008F42AE08E010F5D1F4F822E912CB12C8E
:1009B000A12CBF01A50194010E94E30BF901CA011A
:1009C0006A300CF5605DD8016E938D01232B242BCA
:1009D000252B79F790E080E0109721F0BD01C70149
:1009E0000E94AA04A1960FB6F894DEBF0FBECDBF39
:1009F000DF91CF911F910F91FF90EF90BF90AF903B
:100A00009F908F900895695CDECFCF92DF92EF9236
:100A1000FF920F931F93CF93DF936B01770FEE0835
:100A2000FF08F7FE1BC0EC016DE20E9472018C0111
:100A300044275527BA014C195D096E097F092AE040
:100A4000CE010E94B904800F911FDF91CF911F91B9
:100A50000F91FF90EF90DF90CF9008952AE0B701BB
:100A6000A601DF91CF911F910F91FF90EF90DF9042
:100A7000CF900C94B9042F923F924F925F926F9255
:100A80007F928F929F92AF92BF92CF92DF92EF921E
:100A9000FF921F93CF93DF93EC016A017B01722ECB
:100AA000AB019601CB01B6010E944B0E68E371E0E9
:100AB000811126C046015701E894B7F82FEF3FEFA8
:100AC0004FE75FE7C501B4010E944B0E81110CC0D6
:100AD0002FEF3FEF4FE75FE7C501B4010E94810CA4
:100AE0006CE371E0181664F02FEF3FEF4FE75FE41F
:100AF000C701B6010E94D90D1816B4F460E471E084
:100B0000CE01DF91CF911F91FF90EF90DF90CF90BA
:100B1000BF90AF909F908F907F906F905F904F901D
:100B20003F902F900C94AA042FEF3FEF4FE75FEC1C
:100B3000C701B6010E94810C87FDE0CF20E030E0C4
:100B4000A901C701B6010E94810C312C212C87FF1D
:100B500009C06DE2CE010E9472011C01F7FAF09407
:100B6000F7F8F09410E060E070E080E09FE3711629
:100B700041F020E030E040E251E40E94860C1F5F2B
:100B8000F6CFA70196010E94150C2B013C010E9493
:100B9000F80C4B015C012AE0BC01A401CE010E94CB
:100BA000B9047C01E20CF31C1123C1F1C501B401AD
:100BB0000E94270D9B01AC01C301B2010E94140CDD
:100BC0004B015C016EE2CE010E947201E80EF91E3B
:100BD000115020F120E030E040E251E4C501B401C1
:100BE0000E94DE0D2B013C010E94F80C4B01B12C40
:100BF000A12C2AE0B501A401CE010E94B904E80E9F
:100C0000F91EC501B4010E94270D9B01AC01C3016F
:100C1000B2010E94140C4B015C01DACFC701DF91D5
:100C2000CF911F91FF90EF90DF90CF90BF90AF904A
:100C30009F908F907F906F905F904F903F902F90FC
:100C4000089585ED8093BC008091CE019091CF01F5
:100C5000A091D001B091D1010796A11DB11D23E053
:100C6000B695A795979587952A95D1F72091BC00C1
:100C700024FD03C01092CC0108954091CE01509103
:100C8000CF016091D0017091D101452B462B472BAC
:100C900069F30097A105B10541F02AE22A95F1F721
:100CA00000C00197A109B109E1CF8091CD010C9459
:100CB00087021F920F920FB60F9211242F933F932A
:100CC0008F939F93AF93BF938091F7019091F80119
:100CD000A091F901B091FA013091F60123E0230FC0
:100CE0002D3758F50196A11DB11D2093F601809373
:100CF000F7019093F801A093F901B093FA01809164
:100D0000FB019091FC01A091FD01B091FE010196C3
:100D1000A11DB11D8093FB019093FC01A093FD01E7
:100D2000B093FE01BF91AF919F918F913F912F9111
:100D30000F900FBE0F901F90189526E8230F029674
:100D4000A11DB11DD2CF1F920F920FB60F92112489
:100D50002F933F934F935F936F937F938F939F93C3
:100D6000AF93BF93EF93FF938FEF91E00E94F70152
:100D7000FF91EF91BF91AF919F918F917F916F9173
:100D80005F914F913F912F910F900FBE0F901F9049
:100D900018951F920F920FB60F9211242F938F93D5
:100DA0009F93EF93FF93E0910F02F09110028081E7
:100DB000E0911502F091160282FD1BC09081809196
:100DC00018028F5F8F7320911902821741F0E09112
:100DD0001802F0E0E150FE4F958F80931802FF91CA
:100DE000EF919F918F912F910F900FBE0F901F90B9
:100DF00018958081F4CF1F920F920FB60F92112495
:100E00002F933F934F935F936F937F938F939F9312
:100E1000AF93BF93EF93FF938091B900887F8036A3
:100E200009F44AC0F0F5883209F4A5C018F58031FC
:100E300009F499C0B8F4882309F4F5C0883009F49E
:100E400092C0FF91EF91BF91AF919F918F917F9150
:100E50006F915F914F913F912F910F900FBE0F9027
:100E60001F901895883109F486C0803251F780931D
:100E7000CA0114C0803409F49BC040F48033B9F334
:100E80008833F9F68093CA0185ECAEC0803509F449
:100E900083C0883509F494C0883499F60E942106ED
:100EA000D0CF883909F48AC038F5883729F050F452
:100EB000883611F0803729F683E08093CC011092B8
:100EC000A50155C0883809F479C0803919F08038F7
:100ED00009F0B7CF8091A501803208F06FC0E09192
:100EE000A50181E08E0F8093A5018091BB00F0E009
:100EF000EB57FE4F80833BC0803B39F0D0F4803A03
:100F000009F477C0883A09F09CCF84E08093CC0143
:100F10001092840110928301F0E0E0E00995809145
:100F2000830181110FC081E08093830110926301DE
:100F300009C0803C09F4A8CF883C09F4A5CF883BC0
:100F400009F07FCFE091840181E08E0F80938401CE
:100F5000F0E0ED59FE4F80818093BB0090918401B9
:100F60008091830129C08091A7018093BB0085EC0B
:100F70008093BC0066CF9091C9018091C8019817F9
:100F800058F5E091C90181E08E0F8093C901F0E02E
:100F9000E855FE4F8081E9CFE091C90181E08E0FD5
:100FA0008093C9018091BB00F0E0E855FE4F80833B
:100FB0009091C9018091C8019817C8F285E8D8CFEF
:100FC000E091C90181E08E0F8093C9018091BB003F
:100FD000F0E0E855FE4F80838091CB0181115ECF18
:100FE00081E08093A60184EA8093BC001092CC013A
:100FF00028CF85EC8093BC001092CC018091A50194
:10100000803230F4E091A501F0E0EB57FE4F108202
:101010006091A50170E085E891E0F0E0E0E00995DD
:101020001092A5010ECF1092CA0138CF1F920F92D5
:101030000FB60F9211242F933F934F935F936F93AB
:101040007F938F939F93AF93BF93CF93DF93EF9350
:10105000FF9380916001C091CC02D0E087FF24C053
:101060001092850010928400809160018F5F8093C0
:10107000600180916001082E000C990B8C179D0770
:1010800024F4809160018C30C4F1809184009091AF
:101090008500049680349C4908F47AC080918400CD
:1010A00090918500049676C080916001082E000C16
:1010B000990B8C179D07C4F6E09160018E2FEE0FFF
:1010C000990BFC01EE0FFF1FE80FF91FE855FD4FCC
:1010D000808186FFC9CFE09160018E2FEE0F990BC2
:1010E000FC01EE0FFF1FE80FF91FE855FD4F80814F
:1010F00060E08F730E94BD00B7CF209184003091D3
:101100008500E09160018E2FEE0F990BFC01EE0F30
:10111000FF1FE80FF91FE855FD4F81819281820F73
:10112000931F9093890080938800E09160018E2F37
:10113000EE0F990BFC01EE0FFF1FE80FF91FE855AA
:10114000FD4F808186FF11C0E09160018E2FEE0F70
:10115000990BFC01EE0FFF1FE80FF91FE855FD4F3B
:10116000808161E08F730E94BD00FF91EF91DF915C
:10117000CF91BF91AF919F918F917F916F915F912F
:101180004F913F912F910F900FBE0F901F90189588
:1011900080E49CE990938900809388008FEF80938E
:1011A0006001E3CF109202021092010288EE93E0F8
:1011B000A0E0B0E08093030290930402A0930502A4
:1011C000B09306022CE031E0309300022093FF013F
:1011D00025EC30E030930C0220930B0224EC30E03D
:1011E00030930E0220930D0220EC30E03093100279
:1011F00020930F0221EC30E0309312022093110271
:1012000022EC30E0309314022093130226EC30E0FD
:1012100030931602209315021092180210921902B0
:1012200010921A0210921B0210929F0210929E02BC
:101230008093A0029093A102A093A202B093A30274
:101240008EE191E090939D0280939C021092D302D4
:101250001092D20280E391E09093D1028093D00269
:1012600087E28093D40280E18093D90282E0809368
:10127000DA021092DB028091CC028C3098F491E07B
:10128000980F9093CC028093CD0290E0FC01EE0F7A
:10129000FF1FE80FF91FE855FD4F88EB9BE0928395
:1012A000818308958FEF8093CD020895789484B55B
:1012B000826084BD84B5816084BD85B5826085BD52
:1012C00085B5816085BD80916E00816080936E00E0
:1012D00010928100809181008260809381008091D2
:1012E0008100816080938100809180008160809383
:1012F00080008091B10084608093B1008091B00043
:1013000081608093B00080917A00846080937A003D
:1013100080917A00826080937A0080917A00816067
:1013200080937A0080917A00806880937A0010928E
:10133000C1008091D50288608093D50212E010939D
:10134000D80262E370E080E090E00E94400160918A
:10135000DB0280ED92E00E94570368EE73E080E0CC
:1013600090E00E94400160E380ED92E00E94410421
:10137000CBE4D6E4CE010197F1F760E380ED92E093
:101380000E9441042197F1F760E380ED92E00E9412
:10139000410483E592E00197F1F760E280ED92E08D
:1013A0000E9441046091D502606240E080ED92E0CD
:1013B0000E945A0484E08093D60240E06CE080ED05
:1013C00092E00E945A0440E061E080ED92E00E94C9
:1013D0005A04CBE3DFE1CE010197F1F71093D70276
:1013E00040E066E080ED92E00E945A0440E062E056
:1013F00080ED92E00E945A042197F1F788E08093F3
:10140000DB0260E080ED92E00E9457038091CD0204
:101410008C3008F068C0E3E9F0E02491EFE7F0E0F9
:101420008491882399F090E0880F991FFC01E85976
:10143000FF4FA591B491FC01EE58FF4F8591949117
:101440008FB7F894EC91E22BEC938FBF8091CD0293
:10145000282F30E0F901EE0FFF1FE20FF31FE855D0
:10146000FD4F9081907C936090831092CE021092F9
:10147000CF022CE0622F0E94500E829FB0011124F7
:1014800030E020E0AB01420F531FFA01EE0FFF1FC7
:10149000E40FF51FE855FD4F908196FD16C02F5FB4
:1014A0003F4F2C30310571F781110FC01092800031
:1014B00082E0809381001092850010928400B19A9E
:1014C00080916F00826080936F00E091CD028E2F3B
:1014D00090E0FC01EE0FFF1FE80FF91FE855FD4FEC
:1014E000808180648083E0910F02F091100282E09D
:1014F0008083E0910B02F0910C021082E0910D02CA
:10150000F0910E028FEC808310921702E09113028B
:10151000F091140286E08083E0911102F0911202B2
:10152000808180618083E0911102F09112028081BC
:1015300088608083E0911102F091120280818068BE
:101540008083E0911102F091120280818F7D80836F
:1015500058E8252E312C64EB862E912CA12CB12C31
:101560008EE00E9409017C018FE00E9409018C013C
:1015700080E10E940901EC01B701FF0C880B990B77
:101580000E94290D20E030E040EA50E40E94DE0D88
:1015900020E030EC4FE754E40E94860C20E030E07D
:1015A00048EC52E40E94DE0D6B017C0140E061E0FA
:1015B00080ED92E00E945A048BE39FE10197F1F7DE
:1015C00060E080E00E94710464E471E080ED92E0EC
:1015D0000E94AA0422E0B701A60180ED92E00E94D9
:1015E0003B056BE471E080ED92E00E94AA0461E0AB
:1015F00080E00E94710462E571E080ED92E00E945B
:10160000AA04B80180ED92E00E94050561E089E03E
:101610000E94710468E571E080ED92E00E94AA04E6
:10162000BE0180ED92E00E94050520E030E040EF31
:1016300051E4C701B6010E94D90D9091CE0218164F
:101640000CF08CC0CC3221E0D2070CF087C00D32F8
:1016500031E013070CF482C02101491A510897FDAB
:101660005394440C551C440C551C052C000C660866
:1016700077088091CF0228E532E0281B310987FDE9
:101680003395220F331F220F331F032E000C440B00
:10169000550B2419350946095709AAE5B0E00E94FF
:1016A000D80BA50194010E94B90BDA01C901840D80
:1016B000951DA61DB71D0E94870064E471E08FEFA1
:1016C00091E00E94AA0422E0B701A6018FEF91E009
:1016D0000E943B056EE471E08FEF91E00E94AA0446
:1016E000B8018FEF91E00E94050566E571E08FEF8C
:1016F00091E00E94AA046E01DD0FEE08FF082AE0C7
:10170000B701A601F7FE0DC06DE28FEF91E00E94D8
:10171000720144275527BA014C195D096E097F09EA
:101720002AE08FEF91E00E94B9046CE571E08FEF41
:1017300091E00E94AA0468EE73E080E090E00E94CD
:10174000400180E090E0892B09F40ACF0E94E30178
:10175000882309F405CF0E94000002CF9101291BC4
:10176000310997FD3395C901880F991F880F991F7B
:10177000A2CF052E97FB1EF400940E94D00B57FDBC
:1017800007D00E94E30B07FC03D04EF40C94D00B5F
:1017900050954095309521953F4F4F4F5F4F08959D
:1017A00090958095709561957F4F8F4F9F4F0895CD
:1017B0000E94050CA59F900DB49F900DA49F800DD5
:1017C000911D11240895A1E21A2EAA1BBB1BFD0135
:1017D0000DC0AA1FBB1FEE1FFF1FA217B307E40710
:1017E000F50720F0A21BB30BE40BF50B661F771F68
:1017F000881F991F1A9469F7609570958095909548
:101800009B01AC01BD01CF010895A29FB001B39F20
:10181000C001A39F700D811D1124911DB29F700DF9
:10182000811D1124911D08955058BB27AA270E949D
:101830002C0C0C949F0D0E94910D38F00E94980D75
:1018400020F039F49F3F19F426F40C948E0D0EF419
:10185000E095E7FB0C94880DE92F0E94B00D58F33A
:10186000BA17620773078407950720F079F4A6F585
:101870000C94D20D0EF4E0950B2EBA2FA02D0B0177
:10188000B90190010C01CA01A0011124FF27591BC5
:1018900099F0593F50F4503E68F11A16F040A22FCB
:1018A000232F342F4427585FF3CF4695379527953C
:1018B000A795F0405395C9F77EF41F16BA0B620B3B
:1018C000730B840BBAF09150A1F0FF0FBB1F661F82
:1018D000771F881FC2F70EC0BA0F621F731F841FC5
:1018E00048F4879577956795B795F7959E3F08F0EB
:1018F000B0CF9395880F08F09927EE0F97958795AD
:1019000008950E94640D08F481E008950E949A0CE5
:101910000C949F0D0E94980D58F00E94910D40F07C
:1019200029F45F3F29F00C94880D51110C94D30DCC
:101930000C948E0D0E94B00D68F39923B1F35523DA
:1019400091F3951B550BBB27AA27621773078407D2
:1019500038F09F5F5F4F220F331F441FAA1FA9F368
:1019600035D00E2E3AF0E0E832D091505040E69556
:10197000001CCAF72BD0FE2F29D0660F771F881FB7
:10198000BB1F261737074807AB07B0E809F0BB0BAA
:10199000802DBF01FF2793585F4F3AF09E3F5105BE
:1019A00078F00C94880D0C94D30D5F3FE4F3983ECF
:1019B000D4F3869577956795B795F7959F5FC9F7A7
:1019C000880F911D9695879597F90895E1E0660F28
:1019D000771F881FBB1F621773078407BA0720F0A1
:1019E000621B730B840BBA0BEE1F88F7E09508950A
:1019F0000E94B80D88F09F5798F0B92F9927B751DA
:101A0000B0F0E1F0660F771F881F991F1AF0BA95A2
:101A1000C9F714C0B13091F00E94D20DB1E0089521
:101A20000C94D20D672F782F8827B85F39F0B93F13
:101A3000CCF3869577956795B395D9F73EF4909555
:101A40008095709561957F4F8F4F9F4F0895E894D3
:101A500009C097FB3EF490958095709561957F4FF6
:101A60008F4F9F4F9923A9F0F92F96E9BB279395A4
:101A7000F695879577956795B795F111F8CFFAF4B4
:101A8000BB0F11F460FF1BC06F5F7F4F8F4F9F4FE5
:101A900016C0882311F096E911C0772321F09EE843
:101AA000872F762F05C0662371F096E8862F70E0A9
:101AB00060E02AF09A95660F771F881FDAF7880F83
:101AC0009695879597F90895990F0008550FAA0BD9
:101AD000E0E8FEEF16161706E807F907C0F0121641
:101AE0001306E407F50798F0621B730B840B950B44
:101AF00039F40A2661F0232B242B252B21F4089599
:101B00000A2609F4A140A6958FEF811D811D089535
:101B100097F99F6780E870E060E008959FEF80ECA0
:101B2000089500240A941616170618060906089543
:101B300000240A9412161306140605060895092EA9
:101B40000394000C11F4882352F0BB0F40F4BF2B18
:101B500011F460FF04C06F5F7F4F8F4F9F4F089558
:101B600057FD9058440F551F59F05F3F71F047954E
:101B7000880F97FB991F61F09F3F79F08795089533
:101B8000121613061406551FF2CF4695F1DF08C052
:101B9000161617061806991FF1CF8695710561056F
:101BA00008940895E894BB2766277727CB0197F917
:101BB00008950E94640D08F48FEF08950E94F10DBE
:101BC0000C949F0D0E94910D38F00E94980D20F00A
:101BD000952311F00C94880D0C948E0D11240C9407
:101BE000D30D0E94B00D70F3959FC1F3950F50E097
:101BF000551F629FF001729FBB27F00DB11D639FBF
:101C0000AA27F00DB11DAA1F649F6627B00DA11D64
:101C1000661F829F2227B00DA11D621F739FB00D0A
:101C2000A11D621F839FA00D611D221F749F33277A
:101C3000A00D611D231F849F600D211D822F762F13
:101C40006A2F11249F5750409AF0F1F088234AF0F0
:101C5000EE0FFF1FBB1F661F771F881F915050405C
:101C6000A9F79E3F510580F00C94880D0C94D30D7C
:101C70005F3FE4F3983ED4F3869577956795B795E3
:101C8000F795E7959F5FC1F7FE2B880F911D9695FD
:101C9000879597F908950E94640D880B990B089514
:101CA000991B79E004C0991F961708F0961B881FAE
:101CB0007A95C9F780950895EE0FFF1F0590F4916E
:081CC000E02D0994F894FFCF18
:101CC80000004000140054000000000019027901CF
:101CD800A6016602D701B501C9010000000028036A
:101CE800FB023E04ED02F402F102EE0200000000E5
:101CF800A40479013E0486026E616E00696E660076
:101D08006F76660054656D703A20002043002043CA
:101D18002C204C3A20002C20573A20000D0A0000B5
:00000001FF
